:10000000400F00205906000097220000450600001E
:1000100000000000000000000000000000000000E0
:100020000000000000000000000000008D0600003D
:10003000000000000000000005080000910E000014
:10004000A5080000A5080000A5080000A5080000FC
:10005000A5080000A5080000A5080000A5080000EC
:10006000A5080000A5080000A5080000A5080000DC
:10007000A5080000A5080000A5080000A5080000CC
:10008000A5080000A5080000A5080000A5080000BC
:10009000A5080000A5080000A5080000A5080000AC
:1000A000A5080000A5080000A5080000A50800009C
:1000B000A5080000A5080000A5080000A50800008C
:1000C00002B4714649084900095C49008E4402BCEB
:1000D0007047C046002934D00123002210B4884262
:1000E0002CD301242407A14204D2814202D2090167
:1000F0001B01F8E7E400A14204D2814202D2490088
:100100005B00F8E7884201D3401A1A434C08A0422A
:1001100002D3001B5C0822438C08A04202D3001BC0
:100120009C082243CC08A04202D3001BDC082243D7
:10013000002803D01B0901D00909E3E7100010BC17
:10014000704701B5002000F00BF802BD0029F8D07F
:1001500003B5FFF7C1FF0EBC4243891A1847C046DA
:100160007047C0461C2101231B04984201D3000C98
:1001700010391B0A984201D3000A08391B0998421A
:1001800001D30009043902A2105C40187047C04630
:100190000403020201010101000000000000000050
:1001A000002B11D1002A0FD1002900D1002802D044
:1001B0000021C943080007B4024802A14018029078
:1001C00003BDC0469DFFFFFF03B4684601B502981A
:1001D00000F04CF8019B9E4602B00CBC7047C04634
:1001E000D0400B00D1409C46203AD34018435242A5
:1001F00063469340184370479140030090409C46EB
:10020000203A9340194352426346D3401943704702
:1002100010B5002903D1FFF7A5FF203002E0080048
:10022000FFF7A0FF10BDC046F7B5040C0D0091B25A
:100230000F0061438C460600019383B2100C5F43AC
:10024000444358433B0C60441B18994202D9802117
:1002500049026418019955437143180C04191B0491
:10026000BFB24919D819091903B0F0BDF0B587B06C
:1002700006000F00059204938B4200D966E001D17D
:10028000824263D804990598FFF7C2FF39000190B4
:100290003000FFF7BDFF019B04991B1A1A00059857
:1002A0000193FFF7A9FF04000D00B94246D801D120
:1002B000B04243D801200021019AFFF79DFF361B71
:1002C000AF4102900391019B002B2ED0E9076208F9
:1002D0000A4301996B088C4601240025BB4232D8A1
:1002E00001D1B2422FD830003900801A994100184C
:1002F00049410019694106000F00012149428C441F
:1003000061460029EAD1029C039D30003900019A20
:10031000FFF766FF019AA4197D4106000F00FFF761
:100320006BFF241A8D41029403950C9B002B01D086
:100330001E605F600298039907B0F0BD00220023A1
:1003400002920393BFE7B6197F41D6E7002300244A
:1003500002930394E9E7000010B5114C200002F06D
:100360006AF800281AD021690E480A68A36802407A
:100370000A60A0220D2120001B6812039847002864
:100380000CDB8021A36820005B6989019847002865
:1003900004DB0021044802F0D8F8F2E7002010BD89
:1003A0002C270000FFDFFFFF1027000010B50248D8
:1003B00001F057FF002010BD4829000010B5024B86
:1003C0001B68984710BDC04600000020014B186014
:1003D0007047C046000000207FB505000E001022C7
:1003E0000021684602F0DAF86C460223A370044B41
:1003F000320029006846019301F082FC7FBDC046AF
:10040000BD0300000021024A024BD1507047C04694
:1004100000F00A4008130000F7B504000D001E00AC
:10042000019201F037FA030000F04CFA054F320058
:100430003B5001992800A04700F044FA385800F0DA
:10044000C5F9C0460800000010B5034A0348002162
:10045000121A01F012FF10BD4002002068000020B7
:100460000648074A10B5121A064901F00AFF064A63
:1004700006480749121A01F004FF10BD00000020D1
:1004800064000020482B0000000000200000002035
:10049000482B000070B505000C1E13D08B684A680D
:1004A0000F48096801F0DDFE0E4863692269E168C2
:1004B00001F0D7FE0C48E16901F0D3FE0B48A169B9
:1004C00001F0CFFE012D05D1EFF305810848103969
:1004D00001F0C7FE2800210000F01AFE70BDC046E2
:1004E00076290000A6290000D6290000E629000090
:1004F000152A000030BFFDE7F7B50A4B0A4D06008C
:10050000EF18CC1B2A0020000849019302F03DF8A7
:1005100060190021019A02F041F83800083C746625
:100520000830FEBD0400000000000000B8280000F4
:10053000F0B51300324A0400556889B0EA05D20DBF
:1005400062B6BFF36F8F180EFF2806D1F33818403C
:1005500008280BD12B4801F084FE2B4801F081FEC6
:1005600000210800FFF796FF09B0F0BD01271B0727
:1005700001D50C000027002CEFD0032A31D12348ED
:1005800001F06FFEA369224A934202D3214A9342AB
:1005900005D3214A93422ED3204A93422BD2023BC9
:1005A0001B88FF221800DF2190430902884222D1D4
:1005B0001340022B1FD11A48216801F052FE266811
:1005C00020222100684601F0E0FF6D46079B002FC6
:1005D00013D0DA0502D1134A1343EB61290030002E
:1005E000C0E7F8235B0010491D4200D10F491048B5
:1005F000103A01F036FE0026E2E75B0A5B02ECE708
:1006000000ED00E0572A0000832A0000C02A000005
:10061000C0000000D02600000000002000000020E4
:10062000D82A0000FF0100003E2A0000292A00000D
:10063000F52A00000821024A53698B435361704731
:1006400000ED00E0EFF30880EFF3098101B5724699
:10065000FFF76EFF01BDC046094880F3088872B6F7
:1006600008480949401880F30988EFF314800221F3
:10067000084380F31488BFF36F8F01F018FE000069
:10068000400F0020400200200008000004207146B6
:10069000014202D0EFF3098001D1EFF308808169B4
:1006A000023909780229FFD001B5724601F0EDFD4B
:1006B00001BDC04643B2000605D41F221A400123E3
:1006C0009340014A1360704700E100E030B5FF2518
:1006D00003220B00290040B20240D20091409B014E
:1006E0002B40C943934000280ADBC0240A4A8008F3
:1006F00080008018A40002590A401343035130BD02
:100700000F2210400838054A800880008018C2690E
:1007100011401943C161F2E700E100E000ED00E0A3
:10072000FF22044B9343044A9360BFF34F8FBFF300
:100730006F8F70470000000000ED00E010B5203A18
:100740001360029B01245360039B06499360049B42
:10075000A143D36080235B04D361002391610265D0
:10076000836610BD1904000070B50B4B150098602E
:10077000426E0A4B0E001A602C1C86F3098800207A
:10078000034B9847201C002100220023014C2047E6
:10079000CB220000190400000C020020D801002028
:1007A0001022014B1A61704700ED00E0054B5A69B9
:1007B0009B689A4205D08023034A5B0551680B432E
:1007C000536070470C02002000ED00E010B50A4BAA
:1007D0009B6883420DD1EFF30583002B09D0802263
:1007E000064B520559680A435A605A6A04490A403E
:1007F0005A6201F03AFE10BD0C02002000ED00E04C
:10080000FF7FFFFF15498A6815481044EFF3098CF4
:10081000F0C043464C4655465E466746F8C072B641
:10082000104F114E4A698A603E60104C14192068BE
:100830000F4C2060906E00239366002800D162B6B2
:10084000074C10191030F8C89846A146AA46B3467E
:10085000BC462438F0C88CF3098870470C0200208D
:100860003000000004ED00E000000008640000001B
:10087000D8010020F0B5C02400220326FF25A400E3
:1008800010002F003040C0008740054993089B00AE
:100890005B1819590132B9431951202AF0D1F0BD22
:1008A00000E100E010B5EFF30583054A103BDB00E3
:1008B000D118496898588847FFF778FF10BDC0469F
:1008C000642700000148006870470000D80100203C
:1008D00010B5024B1B689847002010BDDC010020BA
:1008E000034B044A1860022391780B4393707047BE
:1008F000DC01002004000020072310B50449054A4C
:1009000099430548521A01F06AFC002010BDC04608
:10091000470F002000400020E001002081200968EE
:10092000094BC0000B40834208D081235B009942F1
:1009300006D180231B02002013607047034BFAE7A7
:1009400086204042F9E7C046FFFEFFFF0048E8016D
:100950000321034A002013688B4313607047C0468D
:1009600000010B4010B5084801F065FD002808D0D3
:10097000064C2000FFF7B4FF2000FFF727FD002002
:1009800010BD13204042FBE74827000091090000FA
:1009900070B50400074D0A2804D1AB680D2128006A
:1009A0005B689847AB6828005B68E1B29847200015
:1009B00070BDC04648270000436800205A68014BBC
:1009C000D150704790120000436800205A68014BD4
:1009D000D1507047B0120000F7B545680190AB6880
:1009E0005C5CFF2C00D16CE0D3062ED49606F60F8B
:1009F0003604402713003B403A4208D001238027A9
:100A000013407F05013B3B4080273F05DB19C02792
:100A10008020BF0217404002874219D08020800208
:100A200087422DD08620002F4CD1002B06D0264B9C
:100A3000A400E4186368254A1340636001239722E9
:100A40008B4068685201835018E08026B602D0E7D8
:100A500001208840002B04D06F681D4C3A59024396
:100A60003A51AA681E43525C1A4B1749920033430D
:100A70005218536097236A685B01D0500020FEBD76
:100A8000062313405F1EBB415B06334381260E489D
:100A9000A40033432418636001238B40110308D55D
:100AA000019A526851680C4A8B5069680B4A8B5006
:100AB000E4E75203F9D5019A526851689522520130
:100AC000F2E716204042DAE700804240FFFFFFF7DE
:100AD0000414000081000C0090120000D0120000ED
:100AE00070B58024E403A2423ED0A0244068640490
:100AF000A24212D080239B039A4201D0002070BDF5
:100B000001238B4044681A4962581A436250406876
:100B1000184942589A434250F0E79A01D20F5200C6
:100B20005B0101D501231A4344680F2912D84E00F6
:100B3000B240114BE5582A43E25001238B404468F0
:100B40000B4962581A43625041680A4A8858034365
:100B50008B50D3E70B009D25103B5B009A406D0145
:100B6000665932436251E8E786204042C7E7C046F3
:100B700048100000281000009013000010B54368D2
:100B80000B4A59680B4888505A6880230A491B0150
:100B9000D1500A4B1A78002A08D0002101200A00FF
:100BA0001970FFF793FD0120FFF784FD002010BDB1
:100BB00004080000030000B10100002638000020F6
:100BC000F0B5194B87B00393002303AF01937B600B
:100BD000BB60019B9B00FD58002D06D1019B01339A
:100BE0000193032BF5D107B0F0BD6B680F4A5B682A
:100BF0000F499E585A58286932435A50002EEDD05A
:100C000041680029EAD00C680029E7D08B681A00F7
:100C10003240334202D028004B689847231E00D050
:100C2000236821001C00EFE72C270000381000008B
:100C300048100000F7B5C024019180270021A402CC
:100C4000019B994201DB0020FEBD3F2503681A0C81
:100C50002B4045682E002640A6420BD09200002B68
:100C600005D1064D0131521913600830E8E72B43D6
:100C70003B43F6E716204042E6E7C0460480424088
:100C80000B0070B505690C006A68052104C3AA7BD6
:100C9000104801F092FB002802D01620404270BD9F
:100CA00004212A7C0C48631D01F087FB0028F4D145
:100CB0000421EA7B0948A31D01F07FFB0028ECD149
:100CC0000221AA890648E31D01F077FB0028E6D03F
:100CD000E3E7C0461C2900000C290000FC280000A6
:100CE000F428000037B5446805692068290000F041
:100CF00097F929002068083100F06EF90948616809
:100D00008368DB68002B0AD001AA9847002805DB1E
:100D100020686A68019900F08DF900203EBD5820D6
:100D20004042FBE71027000037B54468134B2268A8
:100D300013490500D15022681249043BD1500820C4
:100D400001F05BFB0021A06801AA01F023FB002851
:100D500013DB019B002219791868FFF76BFF00284D
:100D60000BDB2800FFF7BEFF002806D188220123F5
:100D7000216852018C5823438B503EBD040800006B
:100D8000030000B101000026F8B58824012546685B
:100D90006401376803693A59AA433A510A685A60AC
:100DA0000A79042A02D916204042F8BD154F920054
:100DB000BA58571C01D15820F6E79A734A79032A8A
:100DC000F1D8114F9200BA58571CF4D01A748A798E
:100DD000032AE8D80D4F9200BA58571CEBD0DA73AB
:100DE000CA79012ADFD80A4992008A58511CE2D0F8
:100DF0009A81FFF777FF0028D7D133681A59154336
:100E00001D51D2E71C2900000C290000FC2800001D
:100E1000F428000030B50C490C4A8C6812680D6843
:100E20008B68002C00D11400002B00D1130008485F
:100E3000ED0301D49C4203D20468A418046009683D
:100E400000688018C01A30BD10E000E008020020E1
:100E5000F8010020094A0020136A1B021B0A1362D2
:100E6000C822074B12011A60064B074A1860074B4D
:100E70005A60072298601A607047C04600ED00E093
:100E800008020020F80100207F0C000010E000E0C4
:100E9000F8B5EFF3108772B6FFF7BCFF0D4A0E4BA3
:100EA0001168186800244018C8210C4D10602E6885
:100EB0001C60801B0901FFF70DF9C8231B01434388
:100EC0009B192B60064B39001C6000F08BFEFFF76E
:100ED0006DFCF8BD04020020F80100200002002093
:100EE000FC010020F0B5002585B00390FFF792FFCC
:100EF000264C274EA368009333680293254B1F6846
:100F0000254BC7191D60254B1B68FB1A0193AB428B
:100F100036DB23492B000A682900039880185941C1
:100F2000C82200231201FFF77FF92B00019A801AD3
:100F30009941A94205DC8023DB00A94220D18342EC
:100F40001ED20300002904DC04D180225204904206
:100F500000D3144B3360013BA268636000238021FF
:100F6000A360114B89045960009B93420BD20299F4
:100F70008C4663449B1A074ADB19136005B0F0BD29
:100F80008023DB00E6E7009BF4E7C04610E000E0CA
:100F90000802002004020020F801002000020020C6
:100FA000FC010020FFFFFF0000ED00E010B5074A44
:100FB000074B14681B68E41AFFF72CFFC8210019BF
:100FC0000901FFF787F8034B186010BD04020020E9
:100FD00000020020FC010020882230B501245201CB
:100FE0008358A34383508D780B8884582B438D8876
:100FF0002B43094D63402B4063408350CD798B795F
:10100000097A2B430B437E21044A845863400B40EA
:101010006340835030BDC0461867020004110000D1
:101020000A78034BC2504A78083BC2507047C0460A
:10103000081000000B0070B511000400D0008822D9
:101040005201984227D98020C026A5584002684006
:10105000760230406840A050032298015143FFF7C8
:1010600039F8194A8309A1583F254B409BB24B40A0
:10107000A35003000120154A2B40A1584B402B40A0
:101080004B40A350124AA358A15803404B40034081
:101090004B40A35070BDD8000D019D420ED9802356
:1010A000C026A5581B026B40760233406B40A3500C
:1010B0004908FFF70FF801304008D2E7A358054D63
:1010C0002B40A350F5E7C04610110000141100009A
:1010D00004110000FF7FFEFF802310B5034C02596E
:1010E0001A42FCD189235B01C15010BD08110000D8
:1010F000054A030082580020520703D4034A0130F6
:101100009B580B707047C046081100002411000066
:1011100070B5EFF3108572B6064B9C6801F09BF931
:10112000002D02D162B6BFF36F8F2000FFF74EFB98
:1011300070BDC0460C020020F8B501270A4E83009E
:101140009D59013084003359AB4200D8F8BD68681E
:10115000002806D0037E3B4201D101F053F9083547
:10116000F1E72B689847FAE730290000012270B5B3
:10117000264B274C86B01A70264B9C4219D303206D
:10118000FFF7DAFF0420FFF7D7FF234C2600234D9B
:10119000AC4211D300F060FBAE4223D300F06CFBF5
:1011A000FFF7DAF801211E4A93898B43938106B039
:1011B00070BD08CC9847DFE7636A0593236A049300
:1011C000E3690393A369029363690193236900931D
:1011D000E368A2686168206800F0BCF823685C6579
:1011E0003034D4E7B26AF36A511C01D1591C05D0DE
:1011F00011003068194303D100F0F6F83036CBE720
:101200000849183000F008FCF8E7C0463C0200200E
:10121000642800006428000064280000642800009E
:10122000D80000201B25000070B5702601250400A1
:1012300046430102114880220918002086B0049517
:101240000E350395053565430D4B059002900190D1
:101250000C48F6182D180C4B30000095520000F089
:1012600079F80422337C2C74934333740134074B94
:10127000E402E418EE606C6006B070BD400A002025
:10128000680000200C0200205D24000040020020C5
:10129000F0B5002087B0FFF74FFF234B83F308889A
:1012A0002249234B0A6A1A40C0231B0413430B62D2
:1012B000FFF7C0F9FFF774FA1E4800F08BF8FFF74C
:1012C000A1F81D4C1D4B9C422BD30120FFF734FF8E
:1012D0000220FFF731FF00F0B5FA194C194B002539
:1012E0005C61194B802205930123184E1849049321
:1012F000D20033002000039502950195009500F07F
:1013000029F804220700237C20009343237401F072
:10131000DDF82800FFF788FF320039002000FFF7D2
:1013200023FA08CC9847CDE7400A002000ED00E002
:10133000FFFF00FF4801002064280000642800002F
:10134000D80000200C020020322B00006D1100009C
:10135000400B0020F0B587B0059303005833836538
:10136000C365109B002583810423072703740F9B0B
:101370000E00040083738560C5738561C56100211B
:1013800000200732BA43D219BA43B318206261620F
:10139000190020000493FFF7AFF8049BC019B8436D
:1013A0001F1A0E9B3A0002930D9B310001930C9B78
:1013B00020000093059BFFF7C1F9054B65659B680D
:1013C000AB4200D01B6E3800236607B0F0BDC046AC
:1013D0000C02002001230374838100230366014B68
:1013E000986070470C02002070B50400EFF3108580
:1013F00072B60426037C33420DD0183000F09EFBF9
:10140000237C2000B343237401F06CF829000548C5
:1014100001F096F870BD002DFCD162B6BFF36F8F5E
:10142000F8E7C0463D0200200B21084A4942936874
:10143000D9669866802306495B05486803434B607C
:1014400062B6BFF36F8F9368D86E70470C020020AE
:1014500000ED00E0102270B582560500037C002AE2
:1014600004DA7F221340037401F01DF80D4E0E4A7A
:10147000B469B368944201D0002C00D1F468AB4247
:1014800008D01A7CD20605D1DA897F2A02D9A2694E
:10149000002A05D0A34202D0200001F06CF82300FE
:1014A000736170BD0C02002024020020102370B56F
:1014B000C356027C002B31DBD3062FD180235B4245
:1014C00013431A4C0374A3691949E2698B4207D18B
:1014D000016042601060E0610FE09A42F8D01B6842
:1014E000002BF5D00E260E259E574557AE42F4DD53
:1014F0005A680360426010605860A5698D4201D04F
:10150000002D00D1E568A3681A7CD20607D1DA89DC
:101510007F2A04D9AA69002A01D1636170BDAB4258
:1015200002D0280001F027F86561F7E70C020020DF
:101530002402002010B500280AD1EFF3058000280E
:1015400007D1064B5A699B689A4202D0FFF76CFF9D
:1015500010BD62B6BFF36F8FFAE7C0460C020020E1
:1015600070B51A4CA168E3690A68CB1A581E83410A
:1015700049685B420A6051601340E169A268002B30
:1015800005D1134B516013600A60E2610AE00E2539
:101590000E205D571056854213DD59681360516067
:1015A0000A605A60A5690A4B9D4201D0002D00D106
:1015B000E568A3689D4202D0280000F0DCFF656169
:1015C00070BD8B42DDD01B68D9E7C0460C020020FD
:1015D000240200201023F7B504000D000093002A18
:1015E00001D0083B0093237C009A134243D113435C
:1015F0005AB2002A5CDB237400230193009B082B62
:101600001ED1A368002B02D0200000F054FF200060
:10161000183000F093FA0B3051D027005837A66DE0
:10162000B74201D0002E53D10022334B01929B6868
:101630009C4205D1EFF305835A1E9341DBB201931F
:101640002D4F2E4BBE699E4201D0002E00D1FE6868
:10165000BB68B34202D0300000F08DFF009B7E617A
:10166000102B08D0200000F02DFE019B002B02D093
:101670002348FFF7AFFE204B9B68A34235D1EFF321
:101680000583002B31D1A389DB070DD5002D02D1B5
:1016900062B6BFF36F8F62B6BFF36F8F0423181C5F
:1016A00002DFEFF3108572B62800FFF7BDFEF7BD2D
:1016B0007F2213402000237400F0F5FE9CE7002DEC
:1016C00002D162B6BFF36F8FEFF3108572B69EE75B
:1016D000300000F0F0FE00233000F366183000F018
:1016E0002DFA3000FFF7E2FE99E7002DDFD162B658
:1016F000BFF36F8FDBE7C0460C02002024020020FE
:101700004801002070B50F4D0F4BAC6906009C429C
:1017100001D0002C00D1EC68AB681A7CD20605D150
:10172000DA897F2A02D9A269002A05D0A34202D011
:10173000200000F020FF230030006B61FFF7FAFE6D
:1017400070BDC0460C0200202402002070B5EFF3EB
:10175000108572B61B4CA168E3690A68CB1A581E43
:10176000834149685B420A6051601340E169A268A5
:10177000002B05D1144B516013600A60E2610AE04E
:101780000E260E209E571056864216DD59681360AD
:1017900051600A605A60A6690B4B9E4201D0002E30
:1017A00000D1E668A3689E4202D0300000F0E3FE5C
:1017B00028006661FFF738FE70BD8B42DAD01B68E7
:1017C000D6E7C0460C02002024020020F8B5040031
:1017D00006000D000C4303D100F061FE2000F8BDAF
:1017E000EFF3108772B6134C134BA068186000F02B
:1017F0007DFEA06832002B001049183000F00CF973
:101800000422A3680500197C9F660A431A740B2200
:101810005242DA6680230A4A5B0551680B435360E3
:1018200062B6BFF36F8F00F0ACFE281AC343DB171C
:101830001840D4E70C0200202C0200201B250000D9
:1018400000ED00E0024B034A9A61DA617047C0463E
:101850000C02002024020020EFF3108172B6054B29
:101860009A68D37B013BD373002902D162B6BFF3E0
:101870006F8F70470C02002010B5EFF3108072B626
:10188000034B9A68D37B0133D373FFF73BFF10BD43
:101890000C020020014B98687047C0460C020020E3
:1018A00010B5047C1F21220003000A4000200C42D6
:1018B00011D1094910008B420DD008490868002851
:1018C00009D0D9897F2905D80E215956044B1B68A8
:1018D000994200DA100010BD6800002028000020A6
:1018E000300200200121044B044AC01A044BC010EE
:1018F0004343D1547047C046B80100203D02002048
:10190000ABAAAAAAF8B518250A4B04001E7C0A4BFC
:101910007543ED18280000F011F9084F002C06D08F
:10192000BA5D2800A21A0649D31700F075F8002303
:10193000BB55F8BD0C020020B80100203D0200207C
:10194000E5180000F8B5EFF3108772B6124E134B8E
:10195000B5681868A84207D100F00DFE002F02D12B
:1019600062B6BFF36F8FF8BD00221A60327C0C4B59
:101970009B5C002BF2D02800FFF792FF041EEDD0F5
:101980002B7CDB06EAD1FFF7EBFD7369AB42E5D1B7
:101990002000FFF7B7FFE1E70C0200202C02002037
:1019A0003D020020024B1868984200D10020704789
:1019B0002C00002010B50400FFF7F4FF0E4A031EB0
:1019C00017D00020944207D89968DB68481C04D1DE
:1019D000581C02D10948001B10BD002B02DC03D1AA
:1019E000914201D9101BF7E700208C42F4D2081B6A
:1019F000F2E79442EED9EFE7FEFFFF7FFFFFFF7FA4
:101A0000002010B5034B1B68834201D0FFF7CEFACC
:101A100010BDC04634000020F0B5040015001E00C3
:101A200085B0531C02D1731C00D17DE02161EFF31E
:101A30001083039372B6002E2ADBFFF7E1FF3C4BC5
:101A400000211B6800905A1E934118000B00009A59
:101A50005219734112184B41364908684968801879
:101A600059410E0005000121A260E3600291FFF7D9
:101A700099FF0700304B9C465B680193002F1AD1F9
:101A800063462360019B63601C6063465C6024E0E6
:101A9000284B1868596802225242D317121A8B41F8
:101AA000521BB341002B04DC01D1002A01D10122D9
:101AB00000230021D8E7B868F968A268E368994272
:101AC00002DC28D1904226D9801A99417B68B860FF
:101AD000F960636027601C607C60FFF763FF8442ED
:101AE0000FD1134B1B6801330BD1029B002B02D18A
:101AF000FFF786FF00900098FFF75CFF0021FFF7DB
:101B0000F1F9039B002B02D162B6BFF36F8F28005F
:101B1000310005B0F0BD121A8B41A260E360019B59
:101B20009F42ADD03F68A9E700250026EFE7C046F9
:101B300034000020D00100202C000020F7B5040064
:101B4000EFF31083019372B60568002D2FD0FFF7D5
:101B500029FF184B5B689C4207D0AA68EB68A6680F
:101B6000E76892197B41AA60EB60002562682368F0
:101B700013605A6025606560844210D000200E4AD0
:101B8000012311680D009D43AC4201D10B4313604A
:101B9000019B002B02D162B6BFF36F8FFEBDFFF732
:101BA0002FFFFFF707FF2900FFF79CF9E6E7162054
:101BB0004042E4E72C00002034020020EFF31082C2
:101BC00072B60123064903430868C01A43425841CC
:101BD000C0B2002A02D162B6BFF36F8F7047C04611
:101BE000340200200022F0B50C00344B85B01860A0
:101BF000334B1A60314B1D68002D12D10122304B3E
:101C0000524228001A60FFF7D5FE2900FFF76AF953
:101C1000002C02D162B6BFF36F8FFFF793FE05B0C1
:101C2000F0BDFFF7BFFE002846D0C2688368002AD7
:101C300042DC02D1234A93423ED89C46AB4201D9B2
:101C40002B00AC4600280AD08668C768DA170093D4
:101C500001920099019A761A97418660C7601A4EE0
:101C60000293DB170393029A039B30687168801814
:101C700059416246114B30607160AA1A1A60FFF731
:101C800091FE0028B6D08368C2681343B2D1416880
:101C900002680E4D0A60516028600360436003696A
:101CA000002C02D162B6BFF36F8F9847EFF3108418
:101CB00072B600232B60E2E7054BBEE73802002036
:101CC00034000020FEFFFF7FD001002034020020FE
:101CD000FFFFFF7F10B5EFF3108472B6FFF790FEA1
:101CE00000230200054908684968801859419C4250
:101CF00002D162B6BFF36F8F10BDC046D001002085
:101D0000F0B5436891B001900693837817000026E0
:101D10009B0700D524E20126764257E04D788B1CC4
:101D20000993252D00D124E200220421099B1400EF
:101D3000009205920A3209931F2C1FD828002038E0
:101D400010281DD8FEF7BCF90E1C1C181C1C1C0FFB
:101D50001C1C1C0C1C161C1C09000120044302E066
:101D6000022004430C43099801330578002DE2D189
:101D7000099337E00820F1E71020EFE77F2C28D8FF
:101D80002800303809280DD840252C4204D0009D69
:101D9000554328180090E6E7059D554328180590FF
:101DA0002020DBE72A2D0CD101CF6506F2D40028D4
:101DB00003DB202505902C43D5E7404205902820E1
:101DC000CCE72E2D05D140200442C7D0300011B001
:101DD000F0BD6C2D2CD026D8682D31D06A2D32D094
:101DE0004C2D30D0009B002B03DA40239C43002372
:101DF000009320232B431A00653A022A01D9612B54
:101E000024D10722FB1D934308331F00B84B0092D7
:101E10000493240752D53400009B9D19AC424FD146
:101E2000059B009A61E1742D9DD07A2D9BD0D9E756
:101E30008020044200D191E78025AD002C438DE73E
:101E400080204000F5E7A020800087E72800633865
:101E5000122800D9E2E0FEF733F90A43E1E1E1E1BB
:101E600043E1E1E1E1E1F2DCE1E111E1A300012381
:101E700002CF0AAA117000930492CAE708CF049314
:101E8000002B01D19B4B0493630602D401235B42D8
:101E900000930099049800F089FB0090B9E7202096
:101EA0000199069B9847002813DB013C009BA34245
:101EB000F5D3059B05949E19361BACE7059CF5E709
:101EC000049B01999B1B185D069B984701340028D1
:101ED000A4DA019B9A7804231343019A93701AE7BA
:101EE00023063FD5A30538D50722073797430CCFE4
:101EF00002920393102322009A43039B0892002B23
:101F000039DA0299039A00244B42944102930394D4
:101F10008023089ADB0013439BB208930AAC0A2380
:101F200002980399220000F04CFB031B0793079BC8
:101F3000089C049323005B0600D4A1E00123079AC8
:101F40009C43009B934200DC9AE0002D00D095E07A
:101F50001123089C9C43009B1AE008CF0293DB17D7
:101F60000393C7E708CFE205F8D5A20501D55BB218
:101F7000F4E71BB2F2E7029B039A1343CED1630648
:101F8000CCD5009B002BC9D111339C43009B0793F8
:101F90000493594B23405A1E9341049AD31825E0C9
:101FA00010239C43063B9C46802322001A40049247
:101FB0001C424AD021008133FF3319401C4242D0D9
:101FC0000722FB1D93431F0003CB083703000B437D
:101FD0004DD1220016339A43089263064AD5009BDE
:101FE000002B47D117339C43009B0793049323078F
:101FF00061D4E3070BD5079B049A0093059B93429A
:1020000005DD9B1A079A9B180093059B0493049B7C
:1020100048E0102378259C461C43C5E7782B04D163
:1020200010225B1B1A439446BEE725200199069BAC
:102030009847002800DA4CE70236E8B29AE0082315
:1020400000259C46B0E701CFC0E78022210008CFE1
:102050005200180011401442B8D080222100920092
:10206000114098B21442B1D00499D8B2AEE7062319
:102070009C4308940AAC6346220054E7009B0493F7
:10208000E30686D52B005A1E9341049A9B18013310
:10209000ACE720200199069B9847002800DA18E752
:1020A000089B01330893089A059B9342F1DC049B3B
:1020B0000492F61AB618E30628D530200199069B3B
:1020C0009847002800DA04E7002D17D101363400C4
:1020D000009B079AF3181B1B9A4223DB1500002D67
:1020E00028D1079B049A1C19059B26009D1A32E0F3
:1020F0003E2B0000372B0000060400000236E8B239
:102100000199069B98470028E1DAE2E61C4B1C4245
:10211000DDD02B20A30700D40B38640500D52D207B
:102120000136EDE730200199069B013498470028DD
:10213000CEDACEE60AAB013DE85C0199069B9847F2
:102140000028CCDAC5E620200199069B0136984785
:10215000002800DABDE663199B1B002BF3DC09990C
:102160000878002800D131E6252800D1D6E54B1C9F
:10217000099301360199069B98470028EFDAA8E6F3
:10218000060400007047C9004018408840087047A6
:10219000F8B50D000400FFF7F6FFFDF7E3FF1F2180
:1021A000091A8A00A218EB0010691F1D0633E719EF
:1021B000E318AEB2002808D101308840E16801433D
:1021C000E16015613E801E80F8BDC1000431625A95
:1021D0003A80D200A2181880D6806652F4E707230E
:1021E000F7B50027043ACC1D89189C4399430E1B70
:1021F000F6080460A660E760300000912425FDF732
:10220000B1FF20222D1A121A20003900920010303E
:1022100000F0C4F90122AD000735ED08A9B24B006A
:1022200013436380731BEA009BB20193A018030061
:102230000198278040008446180063464380A152DD
:102240000122009B0199F6005F801980A61973880E
:102250002900134373802000FFF79AFFF7BD002089
:1022600070470FB407B504A901C90191FEF7B4F88E
:1022700003B008BC04B01847704710B500F08EF9E1
:1022800010BD10B500F081F910BD10B50100006857
:10229000FEF700F910BD10B5FEF72CF9FEF786FA2F
:1022A00010BD10B500210120FEF7F4F810BD10B5E7
:1022B000FEF736FAFEF7C8F8FEF7D2F8FEF7DAFABC
:1022C000FEF7E6FF862040427047002802D162B642
:1022D000BFF36F8F7047BFF34F8F30BF62B6BFF34E
:1022E0006F8F704710B5FEF7F3FA002010BD002085
:1022F000704700207047436800205A689C235B01A8
:10230000D3580B60704710B5436894205C68400157
:1023100023585A4011404B402350002010BD4368C1
:1023200000205A6895235B01D150704730B503698E
:102330000024586800280FD1002A1BD116204042E3
:1023400030BD20609868814210D19C600EE0056825
:102350000400002DF0D028008842F8D10868002C35
:10236000EFD19C685860A14200D1986000200860BD
:10237000824206D05A680A609A685960002A00D1E1
:1023800099600020DCE743685A6881235B01D058DC
:10239000C0B2704730B50368136005790468ED007A
:1023A0006419A34202D30220404230BD0833DC1E30
:1023B00024788C42F0D10020F7E730B50024A50046
:1023C0004559954205D00134A142F8D1162040422A
:1023D00005E0A142FAD00132F8D000201C7030BDD7
:1023E00010B543681868FEF777FE10BD10B5436856
:1023F0001868FEF77DFE013810BD831E043BC04601
:10240000FCD2704710B543690400002B07D10023AC
:102410000122E168487802434A70584210BD98474B
:102420000028F4D0C1174318E2684B40FF2B00DDB1
:10243000FF231370ECE7002808D0C36800205A7807
:10244000D20703D5187843425841C0B27047EFF322
:10245000108372B6FEE710B5FFF7F9FF10B5EFF382
:10246000108372B6FFF737FFF9E710B58489EFF3F1
:10247000108172B6037C1B0705D5002902D162B614
:10248000BFF36F8F10BD0122FFF7A4F8E407F9D561
:1024900062B6BFF36F8F0423181C02DFF2E710B59A
:1024A000FFF754F910BD0368426813605A600023B7
:1024B00003604360704710B50400FFF7F4FF022289
:1024C000237C934323740023A36010BD10B5EFF366
:1024D000108472B6FEF7EAFF002C02D162B6BFF399
:1024E0006F8F10BD10B5FEF7E1FF10BD10B5FEF700
:1024F000B1FF10BD282310B5027C04001A420BD195
:102500008368002B01D0FFF7D6FF0422237C200034
:1025100093432374FEF7CAFF10BD70B50500183D44
:10252000EFF3108472B6FFF749FB002802D12800B0
:10253000FFF7E0FF002C02D162B6BFF36F8F70BDD2
:1025400010B50800FEF7F6FF10BD70B505000C00D1
:10255000FFF73CF9013501D1631C0AD00200C31713
:1025600000210920801859410A220023FDF718FE96
:1025700070BD2000FCE710B5FFF792F9FFF7C2F934
:1025800010BD10B5FFF7A6FB10BD002310B59A4291
:1025900000D110BDCC5CC4540133F8E703008218AD
:1025A000934200D1704719700133F9E703004118D5
:1025B0008B4202D01A78002A01D1181A70470133D1
:1025C000F6E7F0B50D003721C91A8FB0C9B20D91E9
:1025D0001F2104000B400C930C99E3B2082955D03D
:1025E000102900D164E0E9076008084369080690F3
:1025F0000791A008A9070843A90808900991089E17
:10260000099F06980799801979410E07B446060973
:1026100000966646009F37430E0900970196009E7C
:10262000019F801979410E06B4466746060A3E436B
:1026300002960E0A0396029E039F801979410E04AA
:10264000B4466746060C3E4304960E0C0596049E5F
:10265000059F8019794100260A910B960A9E0B9FCF
:10266000801979414E07CD080521C40834436143E0
:1026700049005B1ADBB2092B12D9012000210A3B69
:1026800024184D41DBB21DE00200A5E707210B40F5
:1026900069078C466646E008E908064334000D00E9
:1026A000303313702300501C2B43EDD10FB0F0BD1D
:1026B0000F210B4029078C4666462009290906434D
:1026C00034000D00092BEBD90D99CB18DBB2E7E7ED
:0826D0009CDBFF7F010000000C
:1026D8000000000010270000000000002C27000068
:1026E8000000000048270000650900000000000005
:1026F800550E000000000000F9080000000000006E
:08270800AD0300000000000019
:10271000092B000000000000882800005C00002059
:10272000000000005109000000000000162B00000E
:10273000B8280000642800005E000020EC010020A2
:102740007D0B000000000000242B0000C4280000C6
:10275000A42800006000002014000020290D0000C3
:042760000000000075
:1027640000000000A32200002C270000C10B000081
:1027740000000000A322000000000000A3220000CB
:1027840000000000A322000000000000A3220000BB
:1027940000000000A322000000000000A3220000AB
:1027A40000000000A322000000000000A32200009B
:1027B40000000000A322000000000000A32200008B
:1027C40000000000A322000000000000A32200007B
:1027D40000000000A322000000000000A32200006B
:1027E40000000000A322000000000000A32200005B
:1027F40000000000A322000000000000A32200004B
:1028040000000000A322000000000000A32200003A
:1028140000000000A322000000000000A32200002A
:1028240000000000A322000000000000A32200001A
:1028340000000000A322000000000000A32200000A
:1028440000000000A322000000000000A3220000FA
:1028540000000000A322000000000000A3220000EA
:10286400D9090000F722000007230000B90900007D
:102874001F230000C9090000E10A00002D23000005
:1028840087230000EF220000F32200000000000074
:102894001D0900000000000000000000000000000E
:1028A400ED230000E123000000000000890D00007A
:0428B400810C000093
:1028B800FFFFFFFF00000A403900002000801040A1
:1028C800D0280000D428000008040000DC280000FC
:1028D80001000000E42800000200000002001400CB
:1028E80000000000020015000000040000000000C5
:1028F8000060000000000000100000002000000040
:1029080030000000FFFFFFFF00000000FFFFFFFF97
:10291800080000000000000002000000060000009F
:102928004200000046000000D8260000D82600001B
:10293800F8260000002700000827000010270000E4
:102948002A2A2A20426F6F74696E67205A65706858
:102958007972204F53206275696C64203536616244
:102968003031396562663062202A2A2A0A007230BC
:102978002F61313A20203078253038782020723184
:102988002F61323A20203078253038782020723272
:102998002F61333A20203078253038780A00723396
:1029A8002F61343A2020307825303878207231323F
:1029B8002F69703A202030782530387820723134E9
:1029C8002F6C723A20203078253038780A00207829
:1029D8007073723A20203078253038780A004661C2
:1029E800756C74696E6720696E7374727563746947
:1029F8006F6E206164647265737320287231352F9D
:102A08007063293A203078253038780A00556E6886
:102A1800616E646C6564204952516E3A2025640ADF
:102A280000526573657276656420457863657074D5
:102A3800696F6E20280053707572696F757320690D
:102A48006E74657272757074202849525120005353
:102A58005053454C20696E20746872656164206D1E
:102A68006F646520646F6573206E6F7420696E648F
:102A78006963617465205053500A004553462063CA
:102A88006F756C64206E6F74206265207265747255
:102A98006965766564207375636365737366756CC1
:102AA8006C792E205368616C6C206E657665722097
:102AB8006F636375722E0A002A2A2A2A2A2048413F
:102AC8005244204641554C54202A2A2A2A2A0A00D0
:102AD800415243485F4558434550542077697468CC
:102AE80020726561736F6E2025780A0A002A2A2AE7
:102AF8002A2A20257320256429202A2A2A2A2A0AF4
:102B080000636C6F636B2D6D6F64756C6500677027
:102B1800696F403430306130303030007561727424
:102B2800403430313038303030006D61696E002803
:102B38006E756C6C29002A666C6F61742A0000003F
:102B48005F22000000000000E522000000000000F5
:102B5800000000000800000000C20100000018008A
:102B68000000003000000000C80000002C00002019
:102B78002C000020FFFFFFFF010001060708090ADB
:102B88000D121314152122232425262728292D2E3A
:092B98003435363A3B02FFFF051B
:0B2BA100000000000000000000000029
:042BAC0015E015E03B
:04000003000006599A
:00000001FF
